:100000006FEF01F00000000000EF00F000000000C2
:0A0010000000000000000000F3D71C
:0A001C0000000000000000001200C8
:100026001D0E0C6E910E0D6E0D2EFED70C2EFCD7EE
:020036001200B6
:0C003800420E0D6E0D2EFED700001200CF
:1000440045BE02D0819E01D0818E45BC02D0819CE8
:1000540001D0818C45BA02D0819A01D0818A45B8F9
:1000640002D0819801D081883AB002D0818401D035
:1000740081948186D1DF819645B602D0819E01D0DC
:10008400818E45B402D0819C01D0818C45B202D0CE
:10009400819A01D0818A45B002D0819801D08188AB
:1000A4003AB002D0818401D081948186B5DF8196F3
:0C00B4003AA002D0B6DF01D0BDDF120080
:0C00C0003A9044C045F0BEDF3A801200C8
:1000CC000FD0800E3F6E19D0C00E3F6E16D0940E1E
:1000DC003F6E13D0D40E3F6E10D0800E3F6E0DD0FD
:1000EC003F50010AEEE03F50020AEEE03F50030A97
:1000FC00EEE03F50040AEEE0F0D74004006E3F50B3
:10010C00002600C03FF000C045F096DF3A90436AED
:10011C0043504124E96E000E4220EA6EEE520BE091
:10012C0043504124E96E000E4220EA6EEECF44F0BB
:0A013C00C1DF432AEDD73A8012001C
:10014600086A096A100E0C6E013408360936045026
:10015600085E0550D8A0053C095ED8B007D004500B
:1001660008260550D8B0053C0926D8900036013639
:060176000C2EEAD7120076
:10017C000900F5CFE6FF0006FBE10106F9E11200EC
:10018C00939693949398939A939C939E819681942F
:10019C00819E819C819A819840DF3FDF3EDF818A7E
:1001AC008188818635DF819638DF818631DF8196C3
:1001BC0034DF81862DDF819630DF8198818628DFC0
:1001CC0081962BDF818624DF8196819A818E8186B0
:1001DC001FDF819622DF819E8188818619DF8196BF
:1001EC008198818615DF819618DF818611DF8196D3
:1001FC00818881860DDF819610DF8198818608DFEA
:10020C008196818E818C818A8188818601DF81969D
:06021C0004DF3A8012002D
:10022200010E38243D6E000E39203E6E0A0E046E19
:10023200000E056E3BC000F03CC001F083DF300EC3
:1002420000263DC0E1FF3EC0E2FF00C0E6FF020E15
:1002520038243D6E000E39203E6E0A0E046E000EEA
:10026200056E3BC000F03CC001F06CDF08C000F03E
:1002720009C001F0300E00263DC0E1FF3EC0E2FFA2
:1002820000C0E6FF020E3F6E0B0E406E38C041F01A
:1002920039C042F01ADF020E3F6E0E0E406E350E6E
:1002A200416E000E426E11DF000E3C1802E1320E6A
:1002B2003B1804E18080809280940FD0000E006E83
:1002C2003C50005C02E13B50320804E280908082A4
:0C02D200809403D0809080928084120001
:1002DE00C5EC01F0060EC16E9290929292949288A5
:1002EE00806A936A200ED56ED66AD58E48DF010ECF
:1002FE00456EA1DE0C0E456E9EDE010E3F6E010EAA
:10030E00406E150E416E000E426ED9DED66A150E87
:10031E000B6E4B0E0C6EBE0E0D6E0D2EFED70C2EF2
:10032E00FCD70B2EFAD70000020E3F6E010E406E68
:10033E00260E416E000E426EC2DED59ED6CF3BF02B
:10034E00000E3C6E3B323B9E000E3C6E63DFD66A67
:06035E00D58EDCD7FFD7AD
:10038A0010EE15F0250E006E010E016E640EF66E6B
:0E039A00030EF76E000EF86EBEEC00F01200BF
:100364004672657175656E63794D6F6E69746F72EF
:010374000088
:0B0375004652455155454E43593A0091
:0403800020303000F9
:03038400487A00B4
:02038700310043
:020000040030CA
:0D000100220F0EFF0181FF0FC00FE00F4026
:00000001FF
