:10000000ACEF06F00000000000EF00F00000000080
:0A0010000000000000000000F3D71C
:0A001C0000000000000000001200C8
:100026001D0E0C6E910E0D6E0D2EFED70C2EFCD7EE
:020036001200B6
:0C003800420E0D6E0D2EFED700001200CF
:080044000AAE029E000E12003C
:0E004C00026A016A006A086A036A000E120066
:10005A000B840BAE38EF00F0010E036E026A016AE0
:0A006A00006A0A360232FF0E12008F
:100074000B820BAE44EF00F003680268016800686D
:080084000A360232FF0E1200E1
:10008C0070BE02D0819E01D0818E70BC02D0819C4A
:10009C0001D0818C70BA02D0819A01D0818A70B85B
:1000AC0002D0819801D081885BB002D0818401D0CC
:1000BC0081948186ADDF819670B602D0819E01D08D
:1000CC00818E70B402D0819C01D0818C70B202D030
:1000DC00819A01D0818A70B002D0819801D0818838
:1000EC005BB002D0818401D08194818691DF8196AE
:0C00FC005BA002D092DF01D099DF12005F
:10010800086A096A000E0762036409EF01F00250E9
:1001180006180A6E075003267E0ED8A09AEF00F044
:10012800035ED8B00DEF01F09EEF00F0035ED8A09B
:1001380011EF01F0028E068E02C00EF001C00BF026
:1001480000C00DF000500402F4CF0CF0015005027D
:10015800F4CF00F0F3CF08F00402F3500C26F4506B
:100168000822000E00220D500502F3500C26F45010
:100178000822000E002202500402F3500826F45010
:10018800002202500502016A000E0122F3500026E7
:10019800F45001220D500602F3500826F4500022B4
:1001A800026A000E012202220B500602F3500026BA
:1001B800F4500122000E02220E500602F3500126CE
:1001C800F450022202BEF1EF00F008360036013684
:1001D80002360306D8B411EF01F004EF01F0D8801D
:1001E800800E08640030000E002201220222D8A0EE
:1001F80004EF01F0023201320032034A0DEF01F040
:100208000AAE029E000E13EF01F0010E1BDF13EF82
:1002180001F0020E2BDF13EF01F0040E1ADF1200BB
:0A0228001D0E0D6E0D2EFED7120004
:0C0232005B906CC070F029DF5B80120054
:10023E000D6A086A0050D8B4000C04180A6E0ABE83
:10024E000D1E0B6A04AE02D0041E042A00AE02D0AC
:10025E00001E002A005004100A6E0ABE1FD0045061
:10026E00085E003600340836045008260036060EA6
:10027E000C6E00340836045000B0085E00A008264C
:10028E0000360C2EF6D700A008260BB015D00DAEFA
:10029E00000C001E002A081E082A000C04AE09D00D
:1002AE0000BE04D00050086E006AF1D7006A002A22
:1002BE00000C001E0B2AD3D7082A0450085CD8A4C1
:0E02CE00E6D7086A002A00AEE2D7FF0C120045
:1002DC006CC004F06DC005F004C002F005C003F062
:1002EC00044A052A6EC000F06FC001F06E4A6F2AF6
:1002FC0000C0E9FF01C0EAFF02C0E1FF03C0E2FF5A
:10030C00EECFE6FF02C0E9FF03C0EAFFEE5201E0C8
:0C031C00E3D76CC000F06DC001F01200CF
:080328000B6A0B86FF0E1200A8
:100330000A6A0350D8A40A800750D8A40A820A5037
:10034000D8B4FBEF01F0030AD8B4B4EF01F00AB05F
:10035000AFEF01F006AEF9EF01F0F7EF01F002AEFA
:10036000F7EF01F0F9EF01F00250800B0A6E029EE8
:100370000650800B069E0A18D8B4C5EF01F00A504B
:10038000D8B4F7EF01F0F9EF01F00750035CD8B4EF
:10039000CFEF01F0D8A0EBEF01F0F1EF01F0065044
:1003A000025CD8B4D9EF01F0D8A0EBEF01F0F1EF87
:1003B00001F00550015CD8B4E3EF01F0D8A0EBEFF9
:1003C00001F0F1EF01F00450005CD8B4FBEF01F054
:1003D000D8B0F1EF01F00A52D8B4F9EF01F0F7EF1D
:1003E00001F00A52D8B4F7EF01F0F9EF01F0D8802C
:0E03F0001200D8901200D880D884120012009B
:1003FE000C6A0E6A0250D8A418EF02F001C002F087
:10040E0000C001F0006A0E860250D8A418EF02F068
:10041E0001C002F0016A0E960E880250D8B42AEF7F
:10042E0002F00E50035ED8A4D8A02FEF02F0D890A1
:10043E0002BE34EF02F0003601360236032E1FEFF5
:10044E0002F02FEF02F0010E0C6EF9DD37EF02F025
:10045E00020E0C6EFBDD37EF02F0040E0C6EEBDDC0
:02046E0012007A
:10047000606A60505E24E96E000E5F20EA6EEE5204
:100480000BE060505E24E96E000E5F20EA6EEECF56
:0A0490006CF0CFDE602AEDD71200F9
:10049A000450000A12E10550000A0FE10650000A52
:1004AA000CE10750000A09E1FF0E006EFF0E016E13
:1004BA007F0E026EFF0E036EA4D0086A096A075007
:1004CA00D8B4F8EF02F00350D8B4FCEF02F00250AF
:1004DA0006180A6E028E068E0E6A02C008F001C065
:1004EA000CF000C00DF004500D5E0550D8A0053C7C
:1004FA000C5E0650D8A0063C085E086A0C6A0D6AB3
:10050A00D8A08FEF02F0D8900232013200320832BE
:10051A00010E0E6E0750035ED8A09CEF02F07E0E0D
:10052A000E240326D8B000EF03F0A2EF02F07E0EED
:10053A000E240326D8A004EF03F0180E0B6E0D3616
:10054A000C3608360036013602360E360450005E86
:10055A000550D8A0053C015E0650D8A0063C025EB4
:10056A0006340E120EA0BDEF02F00D80C8EF02F0A5
:10057A00045000260550D8B0053C01260650D8B0D4
:10058A00062802260D900B2EA4EF02F0EEEF02F0E1
:10059A00D8900036013602360E360450005E0550F9
:1005AA00D8A0053C015E0650D8A0063C025E06347F
:1005BA000E10010B0D26D8B00C2AD8B4082AD8A4DC
:1005CA00EEEF02F008320C320D32032AD8B400EFF3
:1005DA0003F00AAE089E0850026E0C50016E0D50D0
:1005EA00006E06EF03F0010E9ADE06EF03F0020E2C
:1005FA0028DD06EF03F0040E38DD06EF03F0080EDF
:04060A0027DD1200D6
:10060E00086A096A100E0C6E013408360936045059
:10061E00085E0550D8A0053C095ED8B007D004503E
:10062E0008260550D8B0053C0926D890003601366C
:06063E000C2EEAD71200A9
:100644000FD0800E5E6E19D0C00E5E6E16D0940E62
:100654005E6E13D0D40E5E6E10D0800E5E6E0DD022
:100664005E50010AEEE05E50020AEEE05E50030ABC
:10067400EEE05E50040AEEE0F0D75F04006E5E50D8
:10068400002600C05EF000C070F0FEDC5B90626A81
:1006940062506024E96E000E6120EA6EEE520BE0B7
:1006A40062506024E96E000E6120EA6EEECF6CF0B9
:0A06B400BEDD622AEDD75B80120064
:1006BE006A6A6B6A5EC066F05FC067F060C068F021
:1006CE0061C069F06950FF0A08E16850FF0A05E150
:1006DE006750FF0A02E16650FF0A0CE162C06CF03F
:1006EE0063C06DF0470E6E6E000E6F6EF0DD030E82
:1006FE00006EEBD1010E646E68AE0ED0800E6818DF
:10070E00006E00C068F0642A62C0E1FF63C0E2FFC1
:10071E002D0EE66E624A632A000E006E691808E11D
:10072E000050681805E10050671802E16650000A93
:10073E000BE162C06CF063C06DF0350E6E6E000E94
:10074E006F6EC5DD006AC1D16950FF0A08E16850BD
:10075E00000A05E16750000A02E16650000A0CE14A
:10076E0062C06CF063C06DF0370E6E6E000E6F6E71
:10077E00AEDD64C000F0A9D1000E046E000E056E51
:10078E00000E066E7F0E076E66C000F067C001F0A9
:10079E0068C002F069C003F0C4DD010ED8B0000ECF
:1007AE00006E00521BE066C000F067C001F068C02A
:1007BE0002F069C003F0000E046E000E056E200EEE
:1007CE00066E820E076E99DC00C066F001C067F0FF
:1007DE0002C068F003C069F06B06CED7000E046E3F
:1007EE00000E056E200E066E820E076E66C000F0BD
:1007FE0067C001F068C002F069C003F092DD000E20
:10080E00D8B0010E006E00521BE066C000F067C04B
:10081E0001F068C002F069C003F0CD0E046ECC0E7C
:10082E00056E4C0E066E7B0E076E67DC00C066F022
:10083E0001C067F002C068F003C069F06B2ACED722
:10084E00FF0E6614086EFF0E6714096E7F0E681495
:10085E000A6E000E69140B6E08C004F009C005F094
:10086E000AC006F00BC007F00436049005360636B3
:10087E000736000E6614006E000E6714016E000E31
:10088E006814026EFF0E6914036E00C066F001C09C
:10089E0067F002C068F003C069F004506610006E85
:1008AE0005506710016E06506810026E07506910F1
:1008BE00036E00C066F001C067F002C068F003C0AE
:1008CE0069F07F0E695C006E00C065F0010E696E06
:1008DE0000C004F066C000F067C001F068C002F00E
:1008EE0069C003F0045007E000360090013602366E
:1008FE000336FF0FF8D700C066F001C067F002C0E4
:10090E0068F003C069F062C0E1FF63C0E2FF6950A6
:10091E00300FE66E624A632A800E6B18006E800EF0
:10092E00010A005C08E3800E060A006E800E6B184A
:10093E00005C01E30AD062C0E1FF63C0E2FF2E0E4D
:10094E00E66E624A632A010E6A6E060E656E655089
:10095E00000A54E0696A66C000F067C001F068C022
:10096E0002F069C003F000360090013602360336FD
:10097E000036009001360236033666500026675068
:10098E000122685002226950032200C066F001C0A5
:10099E0067F002C068F003C069F066C000F067C07F
:1009AE0001F068C002F069C003F000360090013615
:1009BE000236033600C066F001C067F002C068F070
:1009CE0003C069F062C0E1FF63C0E2FF6950300FFF
:1009DE00E66E624A632A6A50000A0EE16B066B509D
:1009EE00000A0AE162C0E1FF63C0E2FF2E0EE66E6E
:1009FE00624A632A010E6A6E6506A9D7FF0E62244B
:100A0E00E96EFF0E6320EA6EEE50300A05E1010E2C
:100A1E00625E000E635AF2D7FF0E6224E96EFF0E7D
:100A2E006320EA6EEE502E0A04E1010E625E000EA5
:100A3E00635A6B50000A43E062C0E1FF63C0E2FFFD
:100A4E00650EE66E624A632A800E6B18006E800E8B
:100A5E00000A005C0BE262C0E1FF63C0E2FF2D0EF4
:100A6E00E66E624A632A6B5000086B6E6BC065F0CF
:100A7E00800E090A006E800E6B18005C0FE20A0EE3
:100A8E00046E65C000F01FEC01F062C0E1FF63C0B0
:100A9E00E2FF0050300FE66E624A632A0A0E046EC1
:100AAE0065C000F01FEC01F008C000F062C0E1FF6D
:100ABE0063C0E2FF0050300FE66E624A632A62C0E6
:0C0ACE00E1FF63C0E2FFE66A006A12006C
:100ADA00C26AC00EC212461C006E0050C116C18CFA
:100AEA00C18E5EC000F000360090003600900036DD
:100AFA0000900050C212C28014EC01F0C284C2A459
:100B0A0001D0FDD7C4CF01F0006AC3500012000E15
:060B1A000112C29012005E
:100B20000050086E0150006E016A026A036A0B6A87
:100B30000C6A960E036E0A6A00C001F008C000F04D
:080B4000086A026A5CDC120085
:100B4800939693949398939A939C939E8196819469
:100B5800819E819C819A819813EC00F013EC00F03F
:100B680013EC00F0818A818881860EEC00F0819672
:100B780013EC00F081860EEC00F0819613EC00F087
:100B880081860EEC00F0819613EC00F08198818646
:100B98000EEC00F0819613EC00F081860EEC00F06C
:100BA8008196819A818E81860EEC00F0819613ECF5
:100BB80000F0819E818881860EEC00F081968198F4
:100BC80081860EEC00F0819613EC00F081860EEC25
:100BD80000F08196818881860EEC00F0819613ECF6
:100BE80000F0819881860EEC00F08196818E818CD0
:100BF800818A818881860EEC00F0819613EC00F0E2
:040C08005B801200FB
:100C0C000900F5CFE6FF0006FBE10106F9E1120051
:100C1C00640E046E000E056E5CC000F05DC001F049
:100C2C00F0DC300E00242E6E0A0E046E000E056EE3
:100C3C005CC000F05DC001F0E4DC0A0E046E000E36
:100C4C00056EDFDC08C000F009C001F0300E002496
:100C5C002F6E0A0E046E000E056E5CC000F05DC0B7
:100C6C0001F0CFDC08C000F009C001F0300E002408
:100C7C00306E316A020E5E6E0B0E5F6E2E0E606E63
:100C8C00000E616ED9DC020E5E6E0E0E5F6E320EC1
:100C9C00606E000E616ED0DC000E5D1802E1320E4B
:100CAC005C1804E18080809280940FD0000E006E5E
:100CBC005D50005C02E15C50320804E2809080825E
:0C0CCC00809403D08090809280841200FD
:100CD8005CC000F05DC001F01FDF000E046E000E66
:100CE800056E200E066E810E076E84EC00F0000E75
:100CF800046EC00E056E7F0E066E880E076E4DECF4
:100D080002F000C05EF001C05FF002C060F003C0F6
:100D180061F04B0E626E000E636ECDDC4F6A010E01
:100D28005E6E010E5F6E150E606E000E616E86DCE3
:100D38004B0E5E6E000E5F6E38EC02F01B0E5E6EA0
:0A0D4800000E5F6E38EC02F012009E
:060D52005E6AC2DE120021
:100D580023EC07F00E0EC16E9280929292949288C4
:100D6800806A936A200ED56ED66AD58EE9DE010EAA
:100D7800706E46EC00F00C0E706E46EC00F0010E42
:100D88005E6E010E5F6E1E0E606E000E616E56DCAA
:100D9800150E0B6E4B0E0C6EBE0E0D6E0D2EFED785
:100DA8000C2EFCD70B2EFAD70000010E706E46EC05
:100DB80000F0D66A150E0B6E4B0E0C6EBE0E0D6E45
:100DC8000D2EFED70C2EFCD70B2EFAD70000D59E81
:100DD800020E5E6E010E5F6E3B0E606E000E616E5F
:100DE8002DDCD6CF5CF0000E5D6E5C325C9E000E92
:100DF8005D6E10DFD66AD58EA8DF00C05CF001C03A
:080E08005DF066DFD6D7FFD7CD
:100E460010EE15F0360E006E010E016E100EF66EE7
:0E0E56000E0EF76E000EF86E06EC06F012009F
:060E1000416D703A200064
:030E160020560063
:100E1900496E697469616C697A696E672E2E2E0054
:040E29003030300035
:030E2D00487A0000
:020E3000300090
:040E3200494E4600DF
:0B0E36004652455155454E43593A00C5
:010E41000FA1
:040E42004E614E00AF
:020000040030CA
:0D000100220F0EFF0181FF0FC00FE00F4026
:00000001FF
