:1000000093EF06F00000000000EF00F00000000099
:0A0010000000000000000000F3D71C
:06001C00000000001200CC
:100022000F0E0C6E470E0D6E0D2EFED70C2EFCD74A
:06003200000000001200B6
:0A003800210E0D6E0D2EFED71200F2
:080042000AAE029E000E12003E
:0E004A00026A016A006A086A036A000E120068
:100058000B840BAE37EF00F0010E036E026A016AE3
:0A006800006A0A360232FF0E120091
:100072000B820BAE43EF00F0036802680168006870
:080082000A360232FF0E1200E3
:10008A0070BE02D0839401D0838470BC02D0839660
:10009A0001D0838670BA02D0839801D0838870B861
:1000AA0002D0839A01D0838A5BB002D0838E01D0BA
:1000BA00839E838CAEDF839C70B602D0839401D07A
:1000CA00838470B402D0839601D0838670B202D042
:1000DA00839801D0838870B002D0839A01D0838A32
:1000EA005BB002D0838E01D0839E838C92DF839C87
:0C00FA005BA002D091DF01D09ADF120061
:10010600086A096A000E0762036408EF01F00250EC
:1001160006180A6E075003267E0ED8A099EF00F047
:10012600035ED8B00CEF01F09DEF00F0035ED8A09F
:1001360010EF01F0028E068E02C00EF001C00BF029
:1001460000C00DF000500402F4CF0CF0015005027F
:10015600F4CF00F0F3CF08F00402F3500C26F4506D
:100166000822000E00220D500502F3500C26F45012
:100176000822000E002202500402F3500826F45012
:10018600002202500502016A000E0122F3500026E9
:10019600F45001220D500602F3500826F4500022B6
:1001A600026A000E012202220B500602F3500026BC
:1001B600F4500122000E02220E500602F3500126D0
:1001C600F450022202BEF0EF00F008360036013687
:1001D60002360306D8B410EF01F003EF01F0D88021
:1001E600800E08640030000E002201220222D8A0F0
:1001F60003EF01F0023201320032034A0CEF01F044
:100206000AAE029E000E12EF01F0010E1BDF12EF86
:1002160001F0020E2BDF12EF01F0040E1ADF1200BE
:0C0226000E0E0D6E0D2EFED70000120013
:0C0232005B906CC070F028DF5B80120055
:10023E000D6A086A0050D8B4000C04180A6E0ABE83
:10024E000D1E0B6A04AE02D0041E042A00AE02D0AC
:10025E00001E002A005004100A6E0ABE1FD0045061
:10026E00085E003600340836045008260036060EA6
:10027E000C6E00340836045000B0085E00A008264C
:10028E0000360C2EF6D700A008260BB015D00DAEFA
:10029E00000C001E002A081E082A000C04AE09D00D
:1002AE0000BE04D00050086E006AF1D7006A002A22
:1002BE00000C001E0B2AD3D7082A0450085CD8A4C1
:0E02CE00E6D7086A002A00AEE2D7FF0C120045
:1002DC006CC004F06DC005F004C002F005C003F062
:1002EC00044A052A6EC000F06FC001F06E4A6F2AF6
:1002FC0000C0E9FF01C0EAFF02C0E1FF03C0E2FF5A
:10030C00EECFE6FF02C0E9FF03C0EAFFEE5201E0C8
:0C031C00E3D76CC000F06DC001F01200CF
:080328000B6A0B86FF0E1200A8
:100330000A6A0350D8A40A800750D8A40A820A5037
:10034000D8B4FBEF01F0030AD8B4B4EF01F00AB05F
:10035000AFEF01F006AEF9EF01F0F7EF01F002AEFA
:10036000F7EF01F0F9EF01F00250800B0A6E029EE8
:100370000650800B069E0A18D8B4C5EF01F00A504B
:10038000D8B4F7EF01F0F9EF01F00750035CD8B4EF
:10039000CFEF01F0D8A0EBEF01F0F1EF01F0065044
:1003A000025CD8B4D9EF01F0D8A0EBEF01F0F1EF87
:1003B00001F00550015CD8B4E3EF01F0D8A0EBEFF9
:1003C00001F0F1EF01F00450005CD8B4FBEF01F054
:1003D000D8B0F1EF01F00A52D8B4F9EF01F0F7EF1D
:1003E00001F00A52D8B4F7EF01F0F9EF01F0D8802C
:0E03F0001200D8901200D880D884120012009B
:1003FE000C6A0E6A0250D8A418EF02F001C002F087
:10040E0000C001F0006A0E860250D8A418EF02F068
:10041E0001C002F0016A0E960E880250D8B42AEF7F
:10042E0002F00E50035ED8A4D8A02FEF02F0D890A1
:10043E0002BE34EF02F0003601360236032E1FEFF5
:10044E0002F02FEF02F0010E0C6EF8DD37EF02F026
:10045E00020E0C6EFADD37EF02F0040E0C6EEADDC2
:02046E0012007A
:10047000606A60505E24E96E000E5F20EA6EEE5204
:100480000BE060505E24E96E000E5F20EA6EEECF56
:0A0490006CF0CFDE602AEDD71200F9
:10049A000450000A12E10550000A0FE10650000A52
:1004AA000CE10750000A09E1FF0E006EFF0E016E13
:1004BA007F0E026EFF0E036EA4D0086A096A075007
:1004CA00D8B4F8EF02F00350D8B4FCEF02F00250AF
:1004DA0006180A6E028E068E0E6A02C008F001C065
:1004EA000CF000C00DF004500D5E0550D8A0053C7C
:1004FA000C5E0650D8A0063C085E086A0C6A0D6AB3
:10050A00D8A08FEF02F0D8900232013200320832BE
:10051A00010E0E6E0750035ED8A09CEF02F07E0E0D
:10052A000E240326D8B000EF03F0A2EF02F07E0EED
:10053A000E240326D8A004EF03F0180E0B6E0D3616
:10054A000C3608360036013602360E360450005E86
:10055A000550D8A0053C015E0650D8A0063C025EB4
:10056A0006340E120EA0BDEF02F00D80C8EF02F0A5
:10057A00045000260550D8B0053C01260650D8B0D4
:10058A00062802260D900B2EA4EF02F0EEEF02F0E1
:10059A00D8900036013602360E360450005E0550F9
:1005AA00D8A0053C015E0650D8A0063C025E06347F
:1005BA000E10010B0D26D8B00C2AD8B4082AD8A4DC
:1005CA00EEEF02F008320C320D32032AD8B400EFF3
:1005DA0003F00AAE089E0850026E0C50016E0D50D0
:1005EA00006E06EF03F0010E9ADE06EF03F0020E2C
:1005FA0027DD06EF03F0040E37DD06EF03F0080EE1
:04060A0026DD1200D7
:10060E00086A096A100E0C6E013408360936045059
:10061E00085E0550D8A0053C095ED8B007D004503E
:10062E0008260550D8B0053C0926D890003601366C
:06063E000C2EEAD71200A9
:100644000FD0800E5E6E19D0C00E5E6E16D0940E62
:100654005E6E13D0D40E5E6E10D0800E5E6E0DD022
:100664005E50010AEEE05E50020AEEE05E50030ABC
:10067400EEE05E50040AEEE0F0D75F04006E5E50D8
:10068400002600C05EF000C070F0FDDC5B90626A82
:1006940062506024E96E000E6120EA6EEE520BE0B7
:1006A40062506024E96E000E6120EA6EEECF6CF0B9
:0A06B400BEDD622AEDD75B80120064
:1006BE006A6A6B6A5EC066F05FC067F060C068F021
:1006CE0061C069F06950FF0A08E16850FF0A05E150
:1006DE006750FF0A02E16650FF0A0CE162C06CF03F
:1006EE0063C06DF0470E6E6E000E6F6EF0DD030E82
:1006FE00006EEBD1010E646E68AE0ED0800E6818DF
:10070E00006E00C068F0642A62C0E1FF63C0E2FFC1
:10071E002D0EE66E624A632A000E006E691808E11D
:10072E000050681805E10050671802E16650000A93
:10073E000BE162C06CF063C06DF0350E6E6E000E94
:10074E006F6EC5DD006AC1D16950FF0A08E16850BD
:10075E00000A05E16750000A02E16650000A0CE14A
:10076E0062C06CF063C06DF0370E6E6E000E6F6E71
:10077E00AEDD64C000F0A9D1000E046E000E056E51
:10078E00000E066E7F0E076E66C000F067C001F0A9
:10079E0068C002F069C003F0C4DD010ED8B0000ECF
:1007AE00006E00521BE066C000F067C001F068C02A
:1007BE0002F069C003F0000E046E000E056E200EEE
:1007CE00066E820E076E98DC00C066F001C067F000
:1007DE0002C068F003C069F06B06CED7000E046E3F
:1007EE00000E056E200E066E820E076E66C000F0BD
:1007FE0067C001F068C002F069C003F092DD000E20
:10080E00D8B0010E006E00521BE066C000F067C04B
:10081E0001F068C002F069C003F0CD0E046ECC0E7C
:10082E00056E4C0E066E7B0E076E66DC00C066F023
:10083E0001C067F002C068F003C069F06B2ACED722
:10084E00FF0E6614086EFF0E6714096E7F0E681495
:10085E000A6E000E69140B6E08C004F009C005F094
:10086E000AC006F00BC007F00436049005360636B3
:10087E000736000E6614006E000E6714016E000E31
:10088E006814026EFF0E6914036E00C066F001C09C
:10089E0067F002C068F003C069F004506610006E85
:1008AE0005506710016E06506810026E07506910F1
:1008BE00036E00C066F001C067F002C068F003C0AE
:1008CE0069F07F0E695C006E00C065F0010E696E06
:1008DE0000C004F066C000F067C001F068C002F00E
:1008EE0069C003F0045007E000360090013602366E
:1008FE000336FF0FF8D700C066F001C067F002C0E4
:10090E0068F003C069F062C0E1FF63C0E2FF6950A6
:10091E00300FE66E624A632A800E6B18006E800EF0
:10092E00010A005C08E3800E060A006E800E6B184A
:10093E00005C01E30AD062C0E1FF63C0E2FF2E0E4D
:10094E00E66E624A632A010E6A6E060E656E655089
:10095E00000A54E0696A66C000F067C001F068C022
:10096E0002F069C003F000360090013602360336FD
:10097E000036009001360236033666500026675068
:10098E000122685002226950032200C066F001C0A5
:10099E0067F002C068F003C069F066C000F067C07F
:1009AE0001F068C002F069C003F000360090013615
:1009BE000236033600C066F001C067F002C068F070
:1009CE0003C069F062C0E1FF63C0E2FF6950300FFF
:1009DE00E66E624A632A6A50000A0EE16B066B509D
:1009EE00000A0AE162C0E1FF63C0E2FF2E0EE66E6E
:1009FE00624A632A010E6A6E6506A9D7FF0E62244B
:100A0E00E96EFF0E6320EA6EEE50300A05E1010E2C
:100A1E00625E000E635AF2D7FF0E6224E96EFF0E7D
:100A2E006320EA6EEE502E0A04E1010E625E000EA5
:100A3E00635A6B50000A43E062C0E1FF63C0E2FFFD
:100A4E00650EE66E624A632A800E6B18006E800E8B
:100A5E00000A005C0BE262C0E1FF63C0E2FF2D0EF4
:100A6E00E66E624A632A6B5000086B6E6BC065F0CF
:100A7E00800E090A006E800E6B18005C0FE20A0EE3
:100A8E00046E65C000F01FEC01F062C0E1FF63C0B0
:100A9E00E2FF0050300FE66E624A632A0A0E046EC1
:100AAE0065C000F01FEC01F008C000F062C0E1FF6D
:100ABE0063C0E2FF0050300FE66E624A632A62C0E6
:0C0ACE00E1FF63C0E2FFE66A006A12006C
:100ADA00C26AC00EC212461C006E0050C116C18CFA
:100AEA00C18E5EC000F000360090003600900036DD
:100AFA0000900050C212C28013EC01F0C284C2A45A
:100B0A0001D0FDD7C4CF01F0006AC3500012000E15
:060B1A000112C29012005E
:100B20000050086E0150006E016A026A036A0B6A87
:100B30000C6A960E036E0A6A00C001F008C000F04D
:080B4000086A026A5CDC120085
:100B4800959C959E959A959895969594839C839E49
:100B5800839483968398839A11EC00F011EC00F04B
:100B680011EC00F08388838A838C0EEC00F0839C60
:100B780011EC00F0838C0EEC00F0839C11EC00F07B
:100B8800838C0EEC00F0839C11EC00F0839A838C2C
:100B98000EEC00F0839C11EC00F0838C0EEC00F05E
:100BA800839C83988384838C0EEC00F0839C11ECE7
:100BB80000F08394838A838C0EEC00F0839C839AE4
:100BC800838C0EEC00F0839C11EC00F0838C0EEC0F
:100BD80000F0839C838A838C0EEC00F0839C11ECDC
:100BE80000F0839A838C0EEC00F0839C83848386C8
:100BF8008388838A838C0EEC00F0839C11EC00F0D0
:040C08005B801200FB
:100C0C000900F5CFE6FF0006FBE10106F9E1120051
:100C1C00640E046E000E056E5CC000F05DC001F049
:100C2C00F0DC300E00242E6E0A0E046E000E056EE3
:100C3C005CC000F05DC001F0E4DC0A0E046E000E36
:100C4C00056EDFDC08C000F009C001F0300E002496
:100C5C002F6E0A0E046E000E056E5CC000F05DC0B7
:100C6C0001F0CFDC08C000F009C001F0300E002408
:100C7C00306E316A020E5E6E0B0E5F6E2E0E606E63
:100C8C00000E616ED9DC020E5E6E0E0E5F6E320EC1
:0A0C9C00606E000E616ED0DC1200E5
:100CA6005CC000F05DC001F038DF000E046E000E7F
:100CB600056E200E066E810E076E83EC00F0000EA8
:100CC600046EC00E056E7F0E066E880E076E4DEC26
:100CD60002F000C05EF001C05FF002C060F003C029
:100CE60061F04B0E626E000E636EE6DC4F6A010E1B
:100CF6005E6E010E5F6E150E606E000E616E9FDCFD
:100D06004B0E5E6E000E5F6E38EC02F01B0E5E6ED2
:0A0D1600000E5F6E38EC02F01200D0
:060D20005E6ADBDE12003A
:100D260012EC07F0030E0B6E080E0C6E770E0D6EAE
:100D36000D2EFED70C2EFCD70B2EFAD70E0EC16E3B
:100D460092809288806A956A200ED56ED66AD58E74
:100D5600F8DE010E706E45EC00F00C0E706E45EC80
:100D660000F0010E5E6E010E5F6E1E0E606E000ECE
:100D7600616E65DC060E0B6E130E0C6EAD0E0D6EFF
:100D86000D2EFED70C2EFCD70B2EFAD70000000036
:100D9600010E706E45EC00F0D66A0B0E0B6E260E39
:100DA6000C6E5D0E0D6E0D2EFED70C2EFCD70B2E87
:100DB600FAD700000000D59E020E5E6E010E5F6E31
:100DC6003B0E606E000E616E3ADCD6CF5CF0000E14
:100DD6005D6E21DFD66AD58EA0DF00C05CF001C053
:080DE6005DF05EDFD9D7FFD7F5
:100E240010EE15F0360E006E010E016EEE0EF66E2B
:0E0E34000D0EF76E000EF86E06EC06F01200C2
:060DEE00416D703A200087
:030DF40020560086
:100DF700496E697469616C697A696E672E2E2E0077
:040E07003030300057
:030E0B00487A0022
:020E0E003000B2
:040E1000494E460001
:0B0E14004652455155454E43593A00E7
:010E1F000FC3
:040E20004E614E00D1
:020000040030CA
:0D000100220F0EFF0181FF0FC00FE00F4026
:00000001FF
